{
  "_format": "hh-sol-artifact-1",
  "contractName": "PlanAbonament",
  "sourceName": "contracts/PlanAbonament.sol",
  "abi": [
    {
      "inputs": [
        {
          "internalType": "string",
          "name": "_retailer",
          "type": "string"
        },
        {
          "internalType": "uint256",
          "name": "_pretSubscriptie",
          "type": "uint256"
        },
        {
          "internalType": "uint256",
          "name": "_durata",
          "type": "uint256"
        },
        {
          "internalType": "uint256",
          "name": "_abonamenteDisp",
          "type": "uint256"
        },
        {
          "internalType": "string",
          "name": "_descriere",
          "type": "string"
        },
        {
          "internalType": "string",
          "name": "_metadataURI",
          "type": "string"
        },
        {
          "internalType": "address",
          "name": "_owner",
          "type": "address"
        }
      ],
      "stateMutability": "nonpayable",
      "type": "constructor"
    },
    {
      "inputs": [
        {
          "internalType": "address",
          "name": "owner",
          "type": "address"
        }
      ],
      "name": "OwnableInvalidOwner",
      "type": "error"
    },
    {
      "inputs": [
        {
          "internalType": "address",
          "name": "account",
          "type": "address"
        }
      ],
      "name": "OwnableUnauthorizedAccount",
      "type": "error"
    },
    {
      "inputs": [],
      "name": "ReentrancyGuardReentrantCall",
      "type": "error"
    },
    {
      "anonymous": false,
      "inputs": [
        {
          "indexed": true,
          "internalType": "address",
          "name": "subscriber",
          "type": "address"
        }
      ],
      "name": "AbonamentCumparat",
      "type": "event"
    },
    {
      "anonymous": false,
      "inputs": [
        {
          "indexed": true,
          "internalType": "address",
          "name": "previousOwner",
          "type": "address"
        },
        {
          "indexed": true,
          "internalType": "address",
          "name": "newOwner",
          "type": "address"
        }
      ],
      "name": "OwnershipTransferred",
      "type": "event"
    },
    {
      "anonymous": false,
      "inputs": [
        {
          "indexed": true,
          "internalType": "address",
          "name": "subscriber",
          "type": "address"
        },
        {
          "indexed": true,
          "internalType": "uint256",
          "name": "subscriptieId",
          "type": "uint256"
        }
      ],
      "name": "RefundRequested",
      "type": "event"
    },
    {
      "inputs": [],
      "name": "abonamentNFT",
      "outputs": [
        {
          "internalType": "contract AbonamentNFT",
          "name": "",
          "type": "address"
        }
      ],
      "stateMutability": "view",
      "type": "function"
    },
    {
      "inputs": [],
      "name": "abonamenteDisp",
      "outputs": [
        {
          "internalType": "uint256",
          "name": "",
          "type": "uint256"
        }
      ],
      "stateMutability": "view",
      "type": "function"
    },
    {
      "inputs": [
        {
          "internalType": "uint256",
          "name": "valoare",
          "type": "uint256"
        },
        {
          "internalType": "uint256",
          "name": "cantitate",
          "type": "uint256"
        }
      ],
      "name": "calculeazaDiscount",
      "outputs": [
        {
          "internalType": "uint256",
          "name": "",
          "type": "uint256"
        }
      ],
      "stateMutability": "pure",
      "type": "function"
    },
    {
      "inputs": [],
      "name": "cancelPlan",
      "outputs": [],
      "stateMutability": "nonpayable",
      "type": "function"
    },
    {
      "inputs": [],
      "name": "cancelled",
      "outputs": [
        {
          "internalType": "bool",
          "name": "",
          "type": "bool"
        }
      ],
      "stateMutability": "view",
      "type": "function"
    },
    {
      "inputs": [],
      "name": "cumparaSubscriptie",
      "outputs": [],
      "stateMutability": "payable",
      "type": "function"
    },
    {
      "inputs": [],
      "name": "descriere",
      "outputs": [
        {
          "internalType": "string",
          "name": "",
          "type": "string"
        }
      ],
      "stateMutability": "view",
      "type": "function"
    },
    {
      "inputs": [],
      "name": "durata",
      "outputs": [
        {
          "internalType": "uint256",
          "name": "",
          "type": "uint256"
        }
      ],
      "stateMutability": "view",
      "type": "function"
    },
    {
      "inputs": [],
      "name": "metadataURI",
      "outputs": [
        {
          "internalType": "string",
          "name": "",
          "type": "string"
        }
      ],
      "stateMutability": "view",
      "type": "function"
    },
    {
      "inputs": [
        {
          "internalType": "address",
          "name": "",
          "type": "address"
        },
        {
          "internalType": "address",
          "name": "",
          "type": "address"
        },
        {
          "internalType": "uint256",
          "name": "",
          "type": "uint256"
        },
        {
          "internalType": "bytes",
          "name": "",
          "type": "bytes"
        }
      ],
      "name": "onERC721Received",
      "outputs": [
        {
          "internalType": "bytes4",
          "name": "",
          "type": "bytes4"
        }
      ],
      "stateMutability": "pure",
      "type": "function"
    },
    {
      "inputs": [],
      "name": "owner",
      "outputs": [
        {
          "internalType": "address",
          "name": "",
          "type": "address"
        }
      ],
      "stateMutability": "view",
      "type": "function"
    },
    {
      "inputs": [],
      "name": "pretSubscriptie",
      "outputs": [
        {
          "internalType": "uint256",
          "name": "",
          "type": "uint256"
        }
      ],
      "stateMutability": "view",
      "type": "function"
    },
    {
      "inputs": [
        {
          "internalType": "uint256",
          "name": "subscriptieId",
          "type": "uint256"
        }
      ],
      "name": "refundSubscriptie",
      "outputs": [],
      "stateMutability": "nonpayable",
      "type": "function"
    },
    {
      "inputs": [],
      "name": "renounceOwnership",
      "outputs": [],
      "stateMutability": "nonpayable",
      "type": "function"
    },
    {
      "inputs": [],
      "name": "retailer",
      "outputs": [
        {
          "internalType": "string",
          "name": "",
          "type": "string"
        }
      ],
      "stateMutability": "view",
      "type": "function"
    },
    {
      "inputs": [
        {
          "internalType": "address",
          "name": "",
          "type": "address"
        }
      ],
      "name": "retrageri",
      "outputs": [
        {
          "internalType": "uint256",
          "name": "",
          "type": "uint256"
        }
      ],
      "stateMutability": "view",
      "type": "function"
    },
    {
      "inputs": [
        {
          "internalType": "address",
          "name": "nft",
          "type": "address"
        },
        {
          "internalType": "address",
          "name": "from",
          "type": "address"
        },
        {
          "internalType": "address",
          "name": "to",
          "type": "address"
        },
        {
          "internalType": "uint256",
          "name": "tokenId",
          "type": "uint256"
        }
      ],
      "name": "testCallRefund",
      "outputs": [],
      "stateMutability": "nonpayable",
      "type": "function"
    },
    {
      "inputs": [
        {
          "internalType": "address",
          "name": "newOwner",
          "type": "address"
        }
      ],
      "name": "transferOwnership",
      "outputs": [],
      "stateMutability": "nonpayable",
      "type": "function"
    },
    {
      "inputs": [],
      "name": "withdraw",
      "outputs": [],
      "stateMutability": "nonpayable",
      "type": "function"
    },
    {
      "stateMutability": "payable",
      "type": "receive"
    }
  ],
  "bytecode": "0x608060405234801561001057600080fd5b506040516134dd3803806134dd83398101604081905261002f91610320565b806001600160a01b03811661005f57604051631e4fbdf760e01b8152600060048201526024015b60405180910390fd5b61006881610200565b506001805586516100bb5760405162461bcd60e51b815260206004820152601d60248201527f52657461696c6572206e616d652063616e6e6f7420626520656d7074790000006044820152606401610056565b6000861161010b5760405162461bcd60e51b815260206004820152601460248201527f50726963652063616e6e6f74206265207a65726f0000000000000000000000006044820152606401610056565b600082511161015c5760405162461bcd60e51b815260206004820152601c60248201527f4d65746164617461205552492063616e6e6f7420626520656d707479000000006044820152606401610056565b6002610168888261047f565b506003869055600485905560058490556006610184848261047f565b506007610191838261047f565b5086863084846040516101a390610250565b6101b1959493929190610569565b604051809103906000f0801580156101cd573d6000803e3d6000fd5b50600860016101000a8154816001600160a01b0302191690836001600160a01b03160217905550505050505050506105dd565b600080546001600160a01b038381166001600160a01b0319831681178455604051919092169283917f8be0079c531659141344cd1fd0a4f28419497f9722a3daafe3b4186f6b6457e09190a35050565b6121608061137d83390190565b634e487b7160e01b600052604160045260246000fd5b60005b8381101561028e578181015183820152602001610276565b50506000910152565b600082601f8301126102a857600080fd5b81516001600160401b038111156102c1576102c161025d565b604051601f8201601f19908116603f011681016001600160401b03811182821017156102ef576102ef61025d565b60405281815283820160200185101561030757600080fd5b610318826020830160208701610273565b949350505050565b600080600080600080600060e0888a03121561033b57600080fd5b87516001600160401b0381111561035157600080fd5b61035d8a828b01610297565b60208a015160408b015160608c015160808d0151939b509199509750955090506001600160401b0381111561039157600080fd5b61039d8a828b01610297565b60a08a015190945090506001600160401b038111156103bb57600080fd5b6103c78a828b01610297565b60c08a015190935090506001600160a01b03811681146103e657600080fd5b8091505092959891949750929550565b600181811c9082168061040a57607f821691505b60208210810361042a57634e487b7160e01b600052602260045260246000fd5b50919050565b601f82111561047a57806000526020600020601f840160051c810160208510156104575750805b601f840160051c820191505b818110156104775760008155600101610463565b50505b505050565b81516001600160401b038111156104985761049861025d565b6104ac816104a684546103f6565b84610430565b6020601f8211600181146104e057600083156104c85750848201515b600019600385901b1c1916600184901b178455610477565b600084815260208120601f198516915b8281101561051057878501518255602094850194600190920191016104f0565b508482101561052e5786840151600019600387901b60f8161c191681555b50505050600190811b01905550565b60008151808452610555816020860160208601610273565b601f01601f19169290920160200192915050565b60c08152600061057c60c083018861053d565b828103602080850182905260048352635355425360e01b9083015260408085018990526001600160a01b038816606086015290810160808501526105c29082018661053d565b91505060018060a01b03831660a08301529695505050505050565b610d91806105ec6000396000f3fe6080604052600436106100e85760003560e01c806303ee438c146100f4578063150b7a021461011f578063305c69c2146101645780633c31e68e146101865780633ccfd60b1461018e5780634c1249fc146101a3578063715018a6146101b85780637afc5ae0146101cd578063801704ff146101e25780638d80f694146102065780638da5cb5b1461023357806398727835146102555780639a82a09a1461026b578063a8dbb3fb14610295578063b2b8cbeb146102ba578063e39b9a50146102d0578063f2fde38b146102f0578063f75b4ddd14610310578063fa400be91461032557600080fd5b366100ef57005b600080fd5b34801561010057600080fd5b50610109610345565b6040516101169190610a8e565b60405180910390f35b34801561012b57600080fd5b5061014b61013a366004610af1565b630a85bd0160e11b95945050505050565b6040516001600160e01b03199091168152602001610116565b34801561017057600080fd5b5061018461017f366004610b90565b6103d3565b005b6101846105ad565b34801561019a57600080fd5b50610184610745565b3480156101af57600080fd5b50610109610845565b3480156101c457600080fd5b50610184610852565b3480156101d957600080fd5b50610109610864565b3480156101ee57600080fd5b506101f860055481565b604051908152602001610116565b34801561021257600080fd5b506101f8610221366004610ba9565b60096020526000908152604090205481565b34801561023f57600080fd5b50610248610871565b6040516101169190610bcd565b34801561026157600080fd5b506101f860035481565b34801561027757600080fd5b506008546102859060ff1681565b6040519015158152602001610116565b3480156102a157600080fd5b506008546102489061010090046001600160a01b031681565b3480156102c657600080fd5b506101f860045481565b3480156102dc57600080fd5b506101846102eb366004610be1565b610880565b3480156102fc57600080fd5b5061018461030b366004610ba9565b6108e8565b34801561031c57600080fd5b50610184610923565b34801561033157600080fd5b506101f8610340366004610c32565b61093a565b6007805461035290610c54565b80601f016020809104026020016040519081016040528092919081815260200182805461037e90610c54565b80156103cb5780601f106103a0576101008083540402835291602001916103cb565b820191906000526020600020905b8154815290600101906020018083116103ae57829003601f168201915b505050505081565b6103db6109e2565b60085460ff1661042a5760405162461bcd60e51b8152602060048201526015602482015274141b185b881a5cc81b9bdd0818d85b98d95b1b1959605a1b60448201526064015b60405180910390fd5b6008546040516331a9108f60e11b815260048101839052339161010090046001600160a01b031690636352211e90602401602060405180830381865afa158015610478573d6000803e3d6000fd5b505050506040513d601f19601f8201168201806040525081019061049c9190610c8e565b6001600160a01b0316146104e25760405162461bcd60e51b815260206004820152600d60248201526c2737ba103a34329037bbb732b960991b6044820152606401610421565b6008546040516319f8a62d60e31b81526101009091046001600160a01b03169063cfc531689061051a90339030908690600401610cab565b600060405180830381600087803b15801561053457600080fd5b505af1158015610548573d6000803e3d6000fd5b5050600354336000908152600960205260408120805492945092509061056f908490610ce5565b9091555050604051819033907f4dc30368d5fd343625c506520752ceeebb912396e82ee3dc67a094b18b1326d090600090a36105aa60018055565b50565b6105b56109e2565b60085460ff16156105fb5760405162461bcd60e51b815260206004820152601060248201526f10589bdb985b595b9d08185b9d5b185d60821b6044820152606401610421565b60035434146106435760405162461bcd60e51b8152602060048201526014602482015273125b98dbdc9c9958dd0811551208185b5bdd5b9d60621b6044820152606401610421565b6000600554116106905760405162461bcd60e51b81526020600482015260186024820152774e6f20737562736372697074696920617661696c61626c6560401b6044820152606401610421565b600854604051632c57727960e21b81526101009091046001600160a01b03169063b15dc9e49034906106c6903390600401610bcd565b6000604051808303818588803b1580156106df57600080fd5b505af11580156106f3573d6000803e3d6000fd5b505060058054935091506000905061070a83610cf8565b909155505060405133907fbe41971054eec7380160651e717646babda85da38bc7e52dd6c5fca3568d1f7490600090a261074360018055565b565b61074d6109e2565b33600090815260096020526040902054806107a15760405162461bcd60e51b81526020600482015260146024820152734e6f2066756e647320746f20776974686472617760601b6044820152606401610421565b336000818152600960205260408082208290555190919083908381818185875af1925050503d80600081146107f2576040519150601f19603f3d011682016040523d82523d6000602084013e6107f7565b606091505b505090508061083a5760405162461bcd60e51b815260206004820152600f60248201526e151c985b9cd9995c8819985a5b1959608a1b6044820152606401610421565b505061074360018055565b6002805461035290610c54565b61085a610a0c565b6107436000610a3e565b6006805461035290610c54565b6000546001600160a01b031690565b6040516319f8a62d60e31b81526001600160a01b0385169063cfc53168906108b090869086908690600401610cab565b600060405180830381600087803b1580156108ca57600080fd5b505af11580156108de573d6000803e3d6000fd5b5050505050505050565b6108f0610a0c565b6001600160a01b03811661091a576000604051631e4fbdf760e01b81526004016104219190610bcd565b6105aa81610a3e565b61092b610a0c565b6008805460ff19166001179055565b600080600a831015610964576064610953856005610d0f565b61095d9190610d26565b90506109a8565b6032831115801561097c5750670de0b6b3a764000084115b1561098e57606461095385600a610d0f565b606461099b85600f610d0f565b6109a59190610d26565b90505b60006109b48486610d0f565b90508060005b858110156109d6576109cc8483610d48565b91506001016109ba565b50925050505b92915050565b600260015403610a0557604051633ee5aeb560e01b815260040160405180910390fd5b6002600155565b33610a15610871565b6001600160a01b031614610743573360405163118cdaa760e01b81526004016104219190610bcd565b600080546001600160a01b038381166001600160a01b0319831681178455604051919092169283917f8be0079c531659141344cd1fd0a4f28419497f9722a3daafe3b4186f6b6457e09190a35050565b602081526000825180602084015260005b81811015610abc5760208186018101516040868401015201610a9f565b506000604082850101526040601f19601f83011684010191505092915050565b6001600160a01b03811681146105aa57600080fd5b600080600080600060808688031215610b0957600080fd5b8535610b1481610adc565b94506020860135610b2481610adc565b93506040860135925060608601356001600160401b03811115610b4657600080fd5b8601601f81018813610b5757600080fd5b80356001600160401b03811115610b6d57600080fd5b886020828401011115610b7f57600080fd5b959894975092955050506020019190565b600060208284031215610ba257600080fd5b5035919050565b600060208284031215610bbb57600080fd5b8135610bc681610adc565b9392505050565b6001600160a01b0391909116815260200190565b60008060008060808587031215610bf757600080fd5b8435610c0281610adc565b93506020850135610c1281610adc565b92506040850135610c2281610adc565b9396929550929360600135925050565b60008060408385031215610c4557600080fd5b50508035926020909101359150565b600181811c90821680610c6857607f821691505b602082108103610c8857634e487b7160e01b600052602260045260246000fd5b50919050565b600060208284031215610ca057600080fd5b8151610bc681610adc565b6001600160a01b039384168152919092166020820152604081019190915260600190565b634e487b7160e01b600052601160045260246000fd5b808201808211156109dc576109dc610ccf565b600081610d0757610d07610ccf565b506000190190565b80820281158282048414176109dc576109dc610ccf565b600082610d4357634e487b7160e01b600052601260045260246000fd5b500490565b818103818111156109dc576109dc610ccf56fea2646970667358221220312aff1e31e663c6e430b41eef2339d3bb84298972851431c8c90c4646a2757e64736f6c634300081c0033608060405234801561001057600080fd5b5060405161216038038061216083398101604081905261002f916102df565b808686600061003e8382610426565b50600161004b8282610426565b5050506001600160a01b03811661007d57604051631e4fbdf760e01b8152600060048201526024015b60405180910390fd5b610086816101b8565b506001600c55836100d95760405162461bcd60e51b815260206004820152601460248201527f50726963652063616e6e6f74206265207a65726f0000000000000000000000006044820152606401610074565b6001600160a01b03831661012f5760405162461bcd60e51b815260206004820152601860248201527f496e76616c696420636f6e7472616374206164647265737300000000000000006044820152606401610074565b60008251116101805760405162461bcd60e51b815260206004820152601c60248201527f4d65746164617461205552492063616e6e6f7420626520656d707479000000006044820152606401610074565b600d849055600f80546001600160a01b0319166001600160a01b03851617905560106101ac8382610426565b505050505050506104e4565b600b80546001600160a01b038381166001600160a01b0319831681179093556040519116919082907f8be0079c531659141344cd1fd0a4f28419497f9722a3daafe3b4186f6b6457e090600090a35050565b634e487b7160e01b600052604160045260246000fd5b600082601f83011261023157600080fd5b81516001600160401b0381111561024a5761024a61020a565b604051601f8201601f19908116603f011681016001600160401b03811182821017156102785761027861020a565b60405281815283820160200185101561029057600080fd5b60005b828110156102af57602081860181015183830182015201610293565b506000918101602001919091529392505050565b80516001600160a01b03811681146102da57600080fd5b919050565b60008060008060008060c087890312156102f857600080fd5b86516001600160401b0381111561030e57600080fd5b61031a89828a01610220565b602089015190975090506001600160401b0381111561033857600080fd5b61034489828a01610220565b9550506040870151935061035a606088016102c3565b60808801519093506001600160401b0381111561037657600080fd5b61038289828a01610220565b92505061039160a088016102c3565b90509295509295509295565b600181811c908216806103b157607f821691505b6020821081036103d157634e487b7160e01b600052602260045260246000fd5b50919050565b601f82111561042157806000526020600020601f840160051c810160208510156103fe5750805b601f840160051c820191505b8181101561041e576000815560010161040a565b50505b505050565b81516001600160401b0381111561043f5761043f61020a565b6104538161044d845461039d565b846103d7565b6020601f821160018114610487576000831561046f5750848201515b600019600385901b1c1916600184901b17845561041e565b600084815260208120601f198516915b828110156104b75787850151825560209485019460019092019101610497565b50848210156104d55786840151600019600387901b60f8161c191681555b50505050600190811b01905550565b611c6d806104f36000396000f3fe6080604052600436106101255760003560e01c80622c6e8d1461012a57806301ffc9a71461015357806303ee438c1461018357806306fdde03146101a5578063081812fc146101ba578063095ea7b3146101e757806318160ddd1461020957806319e535631461021e57806323b872dd146102345780632f745c591461025457806342842e0e146102745780634f6ccce7146102945780636352211e146102b457806370a08231146102d4578063715018a6146102f457806388fa8ba6146103095780638da5cb5b1461032957806395d89b411461033e578063a22cb46514610353578063b15dc9e414610373578063b88d4fde14610386578063c87b56dd146103a6578063cfc53168146103c6578063e985e9c5146103e6578063f2fde38b14610406575b600080fd5b34801561013657600080fd5b50610140600e5481565b6040519081526020015b60405180910390f35b34801561015f57600080fd5b5061017361016e366004611714565b610426565b604051901515815260200161014a565b34801561018f57600080fd5b50610198610437565b60405161014a9190611781565b3480156101b157600080fd5b506101986104c5565b3480156101c657600080fd5b506101da6101d5366004611794565b610557565b60405161014a91906117ad565b3480156101f357600080fd5b506102076102023660046117dd565b61056c565b005b34801561021557600080fd5b50600954610140565b34801561022a57600080fd5b50610140600d5481565b34801561024057600080fd5b5061020761024f366004611807565b61057b565b34801561026057600080fd5b5061014061026f3660046117dd565b6105fb565b34801561028057600080fd5b5061020761028f366004611807565b610652565b3480156102a057600080fd5b506101406102af366004611794565b610672565b3480156102c057600080fd5b506101da6102cf366004611794565b6106c6565b3480156102e057600080fd5b506101406102ef366004611844565b6106d1565b34801561030057600080fd5b50610207610719565b34801561031557600080fd5b50600f546101da906001600160a01b031681565b34801561033557600080fd5b506101da61072d565b34801561034a57600080fd5b5061019861073c565b34801561035f57600080fd5b5061020761036e36600461185f565b61074b565b610207610381366004611844565b610756565b34801561039257600080fd5b506102076103a13660046118b1565b610936565b3480156103b257600080fd5b506101986103c1366004611794565b61094e565b3480156103d257600080fd5b506102076103e1366004611807565b610959565b3480156103f257600080fd5b50610173610401366004611992565b6109ac565b34801561041257600080fd5b50610207610421366004611844565b6109da565b600061043182610a15565b92915050565b60108054610444906119c5565b80601f0160208091040260200160405190810160405280929190818152602001828054610470906119c5565b80156104bd5780601f10610492576101008083540402835291602001916104bd565b820191906000526020600020905b8154815290600101906020018083116104a057829003601f168201915b505050505081565b6060600080546104d4906119c5565b80601f0160208091040260200160405190810160405280929190818152602001828054610500906119c5565b801561054d5780601f106105225761010080835404028352916020019161054d565b820191906000526020600020905b81548152906001019060200180831161053057829003601f168201915b5050505050905090565b600061056282610a3a565b5061043182610a72565b610577828233610a8d565b5050565b6001600160a01b0382166105ae576000604051633250574960e11b81526004016105a591906117ad565b60405180910390fd5b60006105bb838333610a9a565b9050836001600160a01b0316816001600160a01b0316146105f5578382826040516364283d7b60e01b81526004016105a5939291906119ff565b50505050565b6000610606836106d1565b821061062957828260405163295f44f760e21b81526004016105a5929190611a22565b506001600160a01b03919091166000908152600760209081526040808320938352929052205490565b61066d83838360405180602001604052806000815250610936565b505050565b600061067d60095490565b82106106a15760008260405163295f44f760e21b81526004016105a5929190611a22565b600982815481106106b4576106b4611a3b565b90600052602060002001549050919050565b600061043182610a3a565b60006001600160a01b0382166106fd5760006040516322718ad960e21b81526004016105a591906117ad565b506001600160a01b031660009081526003602052604090205490565b610721610aaf565b61072b6000610ae1565b565b600b546001600160a01b031690565b6060600180546104d4906119c5565b610577338383610b33565b61075e610bc9565b600d5434146107a25760405162461bcd60e51b815260206004820152601060248201526f53756d6120455448206772657369746160801b60448201526064016105a5565b600e80549060006107b283611a67565b9091555050600e546107c48282610bf3565b61085881601080546107d5906119c5565b80601f0160208091040260200160405190810160405280929190818152602001828054610801906119c5565b801561084e5780601f106108235761010080835404028352916020019161084e565b820191906000526020600020905b81548152906001019060200180831161083157829003601f168201915b5050505050610c0d565b60405181906001600160a01b038416907fb4e62779bc75095aac12398b819232a320a5f7de831bde77b0a57263507cc65c90600090a3600f546040516000916001600160a01b03169034908381818185875af1925050503d80600081146108db576040519150601f19603f3d011682016040523d82523d6000602084013e6108e0565b606091505b50509050806109275760405162461bcd60e51b8152602060048201526013602482015272115512081d1c985b9cd9995c8819985a5b1959606a1b60448201526064016105a5565b50506109336001600c55565b50565b61094184848461057b565b6105f53385858585610c5d565b606061043182610d76565b600f546001600160a01b031633146109a15760405162461bcd60e51b815260206004820152600b60248201526a1399585d5d1bdc9a5e985d60aa1b60448201526064016105a5565b61066d838383610e7f565b6001600160a01b03918216600090815260056020908152604080832093909416825291909152205460ff1690565b6109e2610aaf565b6001600160a01b038116610a0c576000604051631e4fbdf760e01b81526004016105a591906117ad565b61093381610ae1565b60006001600160e01b0319821663780e9d6360e01b1480610431575061043182610f1b565b600080610a4683610f40565b90506001600160a01b03811661043157604051637e27328960e01b8152600481018490526024016105a5565b6000908152600460205260409020546001600160a01b031690565b61066d8383836001610f5b565b6000610aa7848484611058565b949350505050565b33610ab861072d565b6001600160a01b03161461072b573360405163118cdaa760e01b81526004016105a591906117ad565b600b80546001600160a01b038381166001600160a01b0319831681179093556040519116919082907f8be0079c531659141344cd1fd0a4f28419497f9722a3daafe3b4186f6b6457e090600090a35050565b6001600160a01b038216610b5c5781604051630b61174360e31b81526004016105a591906117ad565b6001600160a01b03838116600081815260056020908152604080832094871680845294825291829020805460ff191686151590811790915591519182527f17307eab39ab6107e8899845ad3d59bd9653f200f220920489ca2b5937696c31910160405180910390a3505050565b6002600c5403610bec57604051633ee5aeb560e01b815260040160405180910390fd5b6002600c55565b610577828260405180602001604052806000815250611125565b6000828152600660205260409020610c258282611ac7565b506040518281527ff8e1a15aba9398e019f0b49df1a4fde98ee17ae345cb5f6b5e2c27f5033e8ce79060200160405180910390a15050565b6001600160a01b0383163b15610d6f57604051630a85bd0160e11b81526001600160a01b0384169063150b7a0290610c9f908890889087908790600401611b85565b6020604051808303816000875af1925050508015610cda575060408051601f3d908101601f19168201909252610cd791810190611bc2565b60015b610d3a573d808015610d08576040519150601f19603f3d011682016040523d82523d6000602084013e610d0d565b606091505b508051600003610d325783604051633250574960e11b81526004016105a591906117ad565b805181602001fd5b6001600160e01b03198116630a85bd0160e11b14610d6d5783604051633250574960e11b81526004016105a591906117ad565b505b5050505050565b6060610d8182610a3a565b5060008281526006602052604081208054610d9b906119c5565b80601f0160208091040260200160405190810160405280929190818152602001828054610dc7906119c5565b8015610e145780601f10610de957610100808354040283529160200191610e14565b820191906000526020600020905b815481529060010190602001808311610df757829003601f168201915b505050505090506000610e3260408051602081019091526000815290565b90508051600003610e44575092915050565b815115610e76578082604051602001610e5e929190611bdf565b60405160208183030381529060405292505050919050565b610aa78461113d565b6001600160a01b038216610ea9576000604051633250574960e11b81526004016105a591906117ad565b6000610eb783836000610a9a565b90506001600160a01b038116610ee357604051637e27328960e01b8152600481018390526024016105a5565b836001600160a01b0316816001600160a01b0316146105f5578382826040516364283d7b60e01b81526004016105a5939291906119ff565b60006001600160e01b03198216632483248360e11b14806104315750610431826111b2565b6000908152600260205260409020546001600160a01b031690565b8080610f6f57506001600160a01b03821615155b15611028576000610f7f84610a3a565b90506001600160a01b03831615801590610fab5750826001600160a01b0316816001600160a01b031614155b8015610fbe5750610fbc81846109ac565b155b15610fde578260405163a9fbf51f60e01b81526004016105a591906117ad565b81156110265783856001600160a01b0316826001600160a01b03167f8c5be1e5ebec7d5bd14f71427d1e84f3dd0314c0f7b2291e5b200ac8c7c3b92560405160405180910390a45b505b5050600090815260046020526040902080546001600160a01b0319166001600160a01b0392909216919091179055565b600080611066858585611202565b90506001600160a01b0381166110c3576110be84600980546000838152600a60205260408120829055600182018355919091527f6e1540171b6c0c960b71a7020d9f60077f6af931a8bbf590da0223dacf75c7af0155565b6110e6565b846001600160a01b0316816001600160a01b0316146110e6576110e681856112f6565b6001600160a01b038516611102576110fd84611377565b610aa7565b846001600160a01b0316816001600160a01b031614610aa757610aa78585611426565b61112f8383611476565b61066d336000858585610c5d565b606061114882610a3a565b50600061116060408051602081019091526000815290565b9050600081511161118057604051806020016040528060008152506111ab565b8061118a846114db565b60405160200161119b929190611bdf565b6040516020818303038152906040525b9392505050565b60006001600160e01b031982166380ac58cd60e01b14806111e357506001600160e01b03198216635b5e139f60e01b145b8061043157506301ffc9a760e01b6001600160e01b0319831614610431565b60008061120e84610f40565b90506001600160a01b0383161561122a5761122a81848661156d565b6001600160a01b0381161561126857611247600085600080610f5b565b6001600160a01b038116600090815260036020526040902080546000190190555b6001600160a01b03851615611297576001600160a01b0385166000908152600360205260409020805460010190555b60008481526002602052604080822080546001600160a01b0319166001600160a01b0389811691821790925591518793918516917fddf252ad1be2c89b69c2b068fc378daa952ba7f163c4a11628f55a4df523b3ef91a4949350505050565b6000611301836106d1565b6000838152600860209081526040808320546001600160a01b038816845260079092529091209192509081831461135857600083815260208281526040808320548584528184208190558352600890915290208290555b6000938452600860209081526040808620869055938552525081205550565b60095460009061138990600190611c0e565b6000838152600a6020526040812054600980549394509092849081106113b1576113b1611a3b565b9060005260206000200154905080600983815481106113d2576113d2611a3b565b6000918252602080832090910192909255828152600a9091526040808220849055858252812055600980548061140a5761140a611c21565b6001900381819060005260206000200160009055905550505050565b60006001611433846106d1565b61143d9190611c0e565b6001600160a01b039093166000908152600760209081526040808320868452825280832085905593825260089052919091209190915550565b6001600160a01b0382166114a0576000604051633250574960e11b81526004016105a591906117ad565b60006114ae83836000610a9a565b90506001600160a01b0381161561066d5760006040516339e3563760e11b81526004016105a591906117ad565b606060006114e8836115c3565b60010190506000816001600160401b038111156115075761150761189b565b6040519080825280601f01601f191660200182016040528015611531576020820181803683370190505b5090508181016020015b600019016f181899199a1a9b1b9c1cb0b131b232b360811b600a86061a8153600a850494508461153b57509392505050565b611578838383611699565b61066d576001600160a01b0383166115a657604051637e27328960e01b8152600481018290526024016105a5565b818160405163177e802f60e01b81526004016105a5929190611a22565b60008072184f03e93ff9f4daa797ed6e38ed64bf6a1f0160401b83106116025772184f03e93ff9f4daa797ed6e38ed64bf6a1f0160401b830492506040015b6904ee2d6d415b85acef8160201b831061162c576904ee2d6d415b85acef8160201b830492506020015b662386f26fc10000831061164a57662386f26fc10000830492506010015b6305f5e1008310611662576305f5e100830492506008015b612710831061167657612710830492506004015b60648310611688576064830492506002015b600a83106104315760010192915050565b60006001600160a01b03831615801590610aa75750826001600160a01b0316846001600160a01b031614806116d357506116d384846109ac565b80610aa75750826001600160a01b03166116ec83610a72565b6001600160a01b031614949350505050565b6001600160e01b03198116811461093357600080fd5b60006020828403121561172657600080fd5b81356111ab816116fe565b60005b8381101561174c578181015183820152602001611734565b50506000910152565b6000815180845261176d816020860160208601611731565b601f01601f19169290920160200192915050565b6020815260006111ab6020830184611755565b6000602082840312156117a657600080fd5b5035919050565b6001600160a01b0391909116815260200190565b80356001600160a01b03811681146117d857600080fd5b919050565b600080604083850312156117f057600080fd5b6117f9836117c1565b946020939093013593505050565b60008060006060848603121561181c57600080fd5b611825846117c1565b9250611833602085016117c1565b929592945050506040919091013590565b60006020828403121561185657600080fd5b6111ab826117c1565b6000806040838503121561187257600080fd5b61187b836117c1565b91506020830135801515811461189057600080fd5b809150509250929050565b634e487b7160e01b600052604160045260246000fd5b600080600080608085870312156118c757600080fd5b6118d0856117c1565b93506118de602086016117c1565b92506040850135915060608501356001600160401b0381111561190057600080fd5b8501601f8101871361191157600080fd5b80356001600160401b0381111561192a5761192a61189b565b604051601f8201601f19908116603f011681016001600160401b03811182821017156119585761195861189b565b60405281815282820160200189101561197057600080fd5b8160208401602083013760006020838301015280935050505092959194509250565b600080604083850312156119a557600080fd5b6119ae836117c1565b91506119bc602084016117c1565b90509250929050565b600181811c908216806119d957607f821691505b6020821081036119f957634e487b7160e01b600052602260045260246000fd5b50919050565b6001600160a01b0393841681526020810192909252909116604082015260600190565b6001600160a01b03929092168252602082015260400190565b634e487b7160e01b600052603260045260246000fd5b634e487b7160e01b600052601160045260246000fd5b600060018201611a7957611a79611a51565b5060010190565b601f82111561066d57806000526020600020601f840160051c81016020851015611aa75750805b601f840160051c820191505b81811015610d6f5760008155600101611ab3565b81516001600160401b03811115611ae057611ae061189b565b611af481611aee84546119c5565b84611a80565b6020601f821160018114611b285760008315611b105750848201515b600019600385901b1c1916600184901b178455610d6f565b600084815260208120601f198516915b82811015611b585787850151825560209485019460019092019101611b38565b5084821015611b765786840151600019600387901b60f8161c191681555b50505050600190811b01905550565b6001600160a01b0385811682528416602082015260408101839052608060608201819052600090611bb890830184611755565b9695505050505050565b600060208284031215611bd457600080fd5b81516111ab816116fe565b60008351611bf1818460208801611731565b835190830190611c05818360208801611731565b01949350505050565b8181038181111561043157610431611a51565b634e487b7160e01b600052603160045260246000fdfea2646970667358221220c75e286bed363a84cd505c3f426311aac6db95703ac5592039fa750e7b8836e364736f6c634300081c0033",
  "linkReferences": {},
  "deployedLinkReferences": {}
}